{
  "transactions": [
    {
      "hash": "0xe79478d5dd04afe561544371e3669b4fb3fb0755292c7a70c9421880d1c1721b",
      "transactionType": "CALL",
      "contractName": "MMadToken",
      "contractAddress": "0xc5a1a52ac838ef30db179c25f3d4a9e750f42abd",
      "function": "approve(address,uint256)",
      "arguments": [
        "0x0000000000000000000000000000000000000999",
        "1000000000000000000000"
      ],
      "transaction": {
        "from": "0x4510bae133e9917587255a6166be55c79f0ce474",
        "to": "0xc5a1a52ac838ef30db179c25f3d4a9e750f42abd",
        "gas": "0xf731",
        "value": "0x0",
        "input": "0x095ea7b3000000000000000000000000000000000000000000000000000000000000099900000000000000000000000000000000000000000000003635c9adc5dea00000",
        "nonce": "0x1d",
        "chainId": "0xaa36a7"
      },
      "additionalContracts": [],
      "isFixedGasLimit": false
    }
  ],
  "receipts": [
    {
      "status": "0x1",
      "cumulativeGasUsed": "0x17373ab",
      "logs": [
        {
          "address": "0xc5a1a52ac838ef30db179c25f3d4a9e750f42abd",
          "topics": [
            "0x8c5be1e5ebec7d5bd14f71427d1e84f3dd0314c0f7b2291e5b200ac8c7c3b925",
            "0x0000000000000000000000004510bae133e9917587255a6166be55c79f0ce474",
            "0x0000000000000000000000000000000000000000000000000000000000000999"
          ],
          "data": "0x00000000000000000000000000000000000000000000003635c9adc5dea00000",
          "blockHash": "0x844d7947cca2c09120874e12b35d6962b6106aa08ffc90266a277d646d87471d",
          "blockNumber": "0x8528cc",
          "blockTimestamp": "0x686e707c",
          "transactionHash": "0xe79478d5dd04afe561544371e3669b4fb3fb0755292c7a70c9421880d1c1721b",
          "transactionIndex": "0xd8",
          "logIndex": "0x1c3",
          "removed": false
        }
      ],
      "logsBloom": "0x00000000000000000000000000000000000000800000000000000008000000000020000000000000000000000000000000000000000000000010000000200000000000000000000000000000000000000000000000000000000000000000000000000000000000000000000000002000000000000400000000000000000000000000000000000000000000000000000000000000000000000000000000000000020000000000000000000000000000000000000000000000000000000000000000000000000000000000000000000000000004010000000000000000000000000010000000040000000000000000000000000000000000000000000000000000",
      "type": "0x2",
      "transactionHash": "0xe79478d5dd04afe561544371e3669b4fb3fb0755292c7a70c9421880d1c1721b",
      "transactionIndex": "0xd8",
      "blockHash": "0x844d7947cca2c09120874e12b35d6962b6106aa08ffc90266a277d646d87471d",
      "blockNumber": "0x8528cc",
      "gasUsed": "0xb2f7",
      "effectiveGasPrice": "0x36a9673",
      "from": "0x4510bae133e9917587255a6166be55c79f0ce474",
      "to": "0xc5a1a52ac838ef30db179c25f3d4a9e750f42abd",
      "contractAddress": null
    }
  ],
  "libraries": [],
  "pending": [],
  "returns": {},
  "timestamp": 1752068221,
  "chain": 11155111,
  "commit": "8bd7f19"
}