{
  "transactions": [
    {
      "hash": "0xab3b262dbfe8ac2beef030d8e6252d7bd3f44562d549447645f34f69d1fb77b9",
      "transactionType": "CALL",
      "contractName": "MMadToken",
      "contractAddress": "0xc5a1a52ac838ef30db179c25f3d4a9e750f42abd",
      "function": "approve(address,uint256)",
      "arguments": [
        "0x1111111111111111111111111111111111111111",
        "1000000000000000000000"
      ],
      "transaction": {
        "from": "0x4510bae133e9917587255a6166be55c79f0ce474",
        "to": "0xc5a1a52ac838ef30db179c25f3d4a9e750f42abd",
        "gas": "0xf85b",
        "value": "0x0",
        "input": "0x095ea7b3000000000000000000000000111111111111111111111111111111111111111100000000000000000000000000000000000000000000003635c9adc5dea00000",
        "nonce": "0x11",
        "chainId": "0xaa36a7"
      },
      "additionalContracts": [],
      "isFixedGasLimit": false
    },
    {
      "hash": "0x950b1bc95f235fd75a1e139a931c810ce47f2edfc9f04d649d10ff0a0eede474",
      "transactionType": "CALL",
      "contractName": "MMadToken",
      "contractAddress": "0xc5a1a52ac838ef30db179c25f3d4a9e750f42abd",
      "function": "approve(address,uint256)",
      "arguments": [
        "0x2222222222222222222222222222222222222222",
        "5000000000000000000000"
      ],
      "transaction": {
        "from": "0x4510bae133e9917587255a6166be55c79f0ce474",
        "to": "0xc5a1a52ac838ef30db179c25f3d4a9e750f42abd",
        "gas": "0x10709",
        "value": "0x0",
        "input": "0x095ea7b3000000000000000000000000222222222222222222222222222222222222222200000000000000000000000000000000000000000000010f0cf064dd59200000",
        "nonce": "0x12",
        "chainId": "0xaa36a7"
      },
      "additionalContracts": [],
      "isFixedGasLimit": false
    },
    {
      "hash": "0x62890de9841b0e30d18830367093189856279e0e38021c27846a0ee35b1e63a1",
      "transactionType": "CALL",
      "contractName": "MMadToken",
      "contractAddress": "0xc5a1a52ac838ef30db179c25f3d4a9e750f42abd",
      "function": "setMinBackingRatio(uint256)",
      "arguments": [
        "120"
      ],
      "transaction": {
        "from": "0x4510bae133e9917587255a6166be55c79f0ce474",
        "to": "0xc5a1a52ac838ef30db179c25f3d4a9e750f42abd",
        "gas": "0xae0a",
        "value": "0x0",
        "input": "0x7a22e0c40000000000000000000000000000000000000000000000000000000000000078",
        "nonce": "0x13",
        "chainId": "0xaa36a7"
      },
      "additionalContracts": [],
      "isFixedGasLimit": false
    },
    {
      "hash": "0x9bb996defbeaca3b23e7c7275158b6ff1adcc6e03d3e7af3be99dd6d015d49b3",
      "transactionType": "CALL",
      "contractName": "MMadToken",
      "contractAddress": "0xc5a1a52ac838ef30db179c25f3d4a9e750f42abd",
      "function": "approve(address,uint256)",
      "arguments": [
        "0x3333333333333333333333333333333333333333",
        "10000000000000000000000"
      ],
      "transaction": {
        "from": "0x4510bae133e9917587255a6166be55c79f0ce474",
        "to": "0xc5a1a52ac838ef30db179c25f3d4a9e750f42abd",
        "gas": "0x10709",
        "value": "0x0",
        "input": "0x095ea7b3000000000000000000000000333333333333333333333333333333333333333300000000000000000000000000000000000000000000021e19e0c9bab2400000",
        "nonce": "0x14",
        "chainId": "0xaa36a7"
      },
      "additionalContracts": [],
      "isFixedGasLimit": false
    },
    {
      "hash": "0x36baa35633d47e12823d0502825a9997cb4bd1733ee60470f7ac599644c789b4",
      "transactionType": "CALL",
      "contractName": "MMadToken",
      "contractAddress": "0xc5a1a52ac838ef30db179c25f3d4a9e750f42abd",
      "function": "setMinBackingRatio(uint256)",
      "arguments": [
        "110"
      ],
      "transaction": {
        "from": "0x4510bae133e9917587255a6166be55c79f0ce474",
        "to": "0xc5a1a52ac838ef30db179c25f3d4a9e750f42abd",
        "gas": "0xae0a",
        "value": "0x0",
        "input": "0x7a22e0c4000000000000000000000000000000000000000000000000000000000000006e",
        "nonce": "0x15",
        "chainId": "0xaa36a7"
      },
      "additionalContracts": [],
      "isFixedGasLimit": false
    }
  ],
  "receipts": [
    {
      "status": "0x1",
      "cumulativeGasUsed": "0x1ca55df",
      "logs": [
        {
          "address": "0xc5a1a52ac838ef30db179c25f3d4a9e750f42abd",
          "topics": [
            "0x8c5be1e5ebec7d5bd14f71427d1e84f3dd0314c0f7b2291e5b200ac8c7c3b925",
            "0x0000000000000000000000004510bae133e9917587255a6166be55c79f0ce474",
            "0x0000000000000000000000001111111111111111111111111111111111111111"
          ],
          "data": "0x00000000000000000000000000000000000000000000003635c9adc5dea00000",
          "blockHash": "0x3b14cd8def18ca623622d787e6f47aa4afb2db80a7dafaeb80d4d390303b4449",
          "blockNumber": "0x8528c0",
          "blockTimestamp": "0x686e6fec",
          "transactionHash": "0xab3b262dbfe8ac2beef030d8e6252d7bd3f44562d549447645f34f69d1fb77b9",
          "transactionIndex": "0x113",
          "logIndex": "0x229",
          "removed": false
        }
      ],
      "logsBloom": "0x00000000000000000000000000000000000000000000000000000008000000000020000000000000000000000000000000000000000000000010000000200000000000000000000000000000000000000000000000000000000000000000000000000000000000000000000000000000000000000400000000000000000200000000000000000000000000000000000000000000000000000000000000000000260000000000000000000000000000000000000000000000000000000000000000000000000000000000000000000000000004000000000000000000000000000010000000040000000000000000000000000000000000000000000000000000",
      "type": "0x2",
      "transactionHash": "0xab3b262dbfe8ac2beef030d8e6252d7bd3f44562d549447645f34f69d1fb77b9",
      "transactionIndex": "0x113",
      "blockHash": "0x3b14cd8def18ca623622d787e6f47aa4afb2db80a7dafaeb80d4d390303b4449",
      "blockNumber": "0x8528c0",
      "gasUsed": "0xb3cf",
      "effectiveGasPrice": "0x2c1af78",
      "from": "0x4510bae133e9917587255a6166be55c79f0ce474",
      "to": "0xc5a1a52ac838ef30db179c25f3d4a9e750f42abd",
      "contractAddress": null
    },
    {
      "status": "0x1",
      "cumulativeGasUsed": "0x1cb5bc2",
      "logs": [
        {
          "address": "0xc5a1a52ac838ef30db179c25f3d4a9e750f42abd",
          "topics": [
            "0x8c5be1e5ebec7d5bd14f71427d1e84f3dd0314c0f7b2291e5b200ac8c7c3b925",
            "0x0000000000000000000000004510bae133e9917587255a6166be55c79f0ce474",
            "0x0000000000000000000000002222222222222222222222222222222222222222"
          ],
          "data": "0x00000000000000000000000000000000000000000000010f0cf064dd59200000",
          "blockHash": "0x3b14cd8def18ca623622d787e6f47aa4afb2db80a7dafaeb80d4d390303b4449",
          "blockNumber": "0x8528c0",
          "blockTimestamp": "0x686e6fec",
          "transactionHash": "0x950b1bc95f235fd75a1e139a931c810ce47f2edfc9f04d649d10ff0a0eede474",
          "transactionIndex": "0x115",
          "logIndex": "0x22a",
          "removed": false
        }
      ],
      "logsBloom": "0x00000000000000000000000000000000000000000000000000000008000000000020000000000000000000000000000000080000000000000010000020200000000000000000000000000000000000000000000000000000000000000000000000000000000000000000000000000000000000000400000000000000000000000000000000000000000000000000000000000000000000000000000000000000020000000000000000000000000000000000000000000000000000000000000000000000000000000000000000000000000004000000000000000000000000000010000000040000000000000000000000000800000000000000000000000000",
      "type": "0x2",
      "transactionHash": "0x950b1bc95f235fd75a1e139a931c810ce47f2edfc9f04d649d10ff0a0eede474",
      "transactionIndex": "0x115",
      "blockHash": "0x3b14cd8def18ca623622d787e6f47aa4afb2db80a7dafaeb80d4d390303b4449",
      "blockNumber": "0x8528c0",
      "gasUsed": "0xb3db",
      "effectiveGasPrice": "0x2c1af78",
      "from": "0x4510bae133e9917587255a6166be55c79f0ce474",
      "to": "0xc5a1a52ac838ef30db179c25f3d4a9e750f42abd",
      "contractAddress": null
    },
    {
      "status": "0x1",
      "cumulativeGasUsed": "0x1cbd2c3",
      "logs": [
        {
          "address": "0xc5a1a52ac838ef30db179c25f3d4a9e750f42abd",
          "topics": [
            "0xa59efddb89dd7b824248607b7d1b06d65297de994795a81231432f37a17f3314"
          ],
          "data": "0x000000000000000000000000000000000000000000000000000000000000006e0000000000000000000000000000000000000000000000000000000000000078",
          "blockHash": "0x3b14cd8def18ca623622d787e6f47aa4afb2db80a7dafaeb80d4d390303b4449",
          "blockNumber": "0x8528c0",
          "blockTimestamp": "0x686e6fec",
          "transactionHash": "0x62890de9841b0e30d18830367093189856279e0e38021c27846a0ee35b1e63a1",
          "transactionIndex": "0x116",
          "logIndex": "0x22b",
          "removed": false
        }
      ],
      "logsBloom": "0x00000000000000000000000000000000000000000000000000000000000000000020000000000000000000000000000000000000000000000010000000000000000000000000000000000000000000000000000000000000000000000000000000000000000000000000000000000000000000000000000000000000000000002002000000000000000000000000000000000000000000000000040000000000000000000000000000000000000000000000000000000000000000000000000000000000000000000000000000000000000000000000000000000000000000000000000000040000000000000000000000000000000000000000000000000000",
      "type": "0x2",
      "transactionHash": "0x62890de9841b0e30d18830367093189856279e0e38021c27846a0ee35b1e63a1",
      "transactionIndex": "0x116",
      "blockHash": "0x3b14cd8def18ca623622d787e6f47aa4afb2db80a7dafaeb80d4d390303b4449",
      "blockNumber": "0x8528c0",
      "gasUsed": "0x7701",
      "effectiveGasPrice": "0x2c1af78",
      "from": "0x4510bae133e9917587255a6166be55c79f0ce474",
      "to": "0xc5a1a52ac838ef30db179c25f3d4a9e750f42abd",
      "contractAddress": null
    },
    {
      "status": "0x1",
      "cumulativeGasUsed": "0x1cc869e",
      "logs": [
        {
          "address": "0xc5a1a52ac838ef30db179c25f3d4a9e750f42abd",
          "topics": [
            "0x8c5be1e5ebec7d5bd14f71427d1e84f3dd0314c0f7b2291e5b200ac8c7c3b925",
            "0x0000000000000000000000004510bae133e9917587255a6166be55c79f0ce474",
            "0x0000000000000000000000003333333333333333333333333333333333333333"
          ],
          "data": "0x00000000000000000000000000000000000000000000021e19e0c9bab2400000",
          "blockHash": "0x3b14cd8def18ca623622d787e6f47aa4afb2db80a7dafaeb80d4d390303b4449",
          "blockNumber": "0x8528c0",
          "blockTimestamp": "0x686e6fec",
          "transactionHash": "0x9bb996defbeaca3b23e7c7275158b6ff1adcc6e03d3e7af3be99dd6d015d49b3",
          "transactionIndex": "0x117",
          "logIndex": "0x22c",
          "removed": false
        }
      ],
      "logsBloom": "0x00000000000000000000000000000002000000000000000000000008000000000020000000000000000000000000000000000000000004000010000000200000000000000000000000000000000000000000000000000000000000000000000000000000000000000000000000000000000000000400000000000000000000000000000000000000000000000000000000000000000000000000000000000000020000000000000000000000000000000000000000000000000000000000000000000000000000000000000000000000000004000000000000000000000000000010000000040000000000000000000000000000100000000000000000000000",
      "type": "0x2",
      "transactionHash": "0x9bb996defbeaca3b23e7c7275158b6ff1adcc6e03d3e7af3be99dd6d015d49b3",
      "transactionIndex": "0x117",
      "blockHash": "0x3b14cd8def18ca623622d787e6f47aa4afb2db80a7dafaeb80d4d390303b4449",
      "blockNumber": "0x8528c0",
      "gasUsed": "0xb3db",
      "effectiveGasPrice": "0x2c1af78",
      "from": "0x4510bae133e9917587255a6166be55c79f0ce474",
      "to": "0xc5a1a52ac838ef30db179c25f3d4a9e750f42abd",
      "contractAddress": null
    },
    {
      "status": "0x1",
      "cumulativeGasUsed": "0x1ccfd9f",
      "logs": [
        {
          "address": "0xc5a1a52ac838ef30db179c25f3d4a9e750f42abd",
          "topics": [
            "0xa59efddb89dd7b824248607b7d1b06d65297de994795a81231432f37a17f3314"
          ],
          "data": "0x0000000000000000000000000000000000000000000000000000000000000078000000000000000000000000000000000000000000000000000000000000006e",
          "blockHash": "0x3b14cd8def18ca623622d787e6f47aa4afb2db80a7dafaeb80d4d390303b4449",
          "blockNumber": "0x8528c0",
          "blockTimestamp": "0x686e6fec",
          "transactionHash": "0x36baa35633d47e12823d0502825a9997cb4bd1733ee60470f7ac599644c789b4",
          "transactionIndex": "0x118",
          "logIndex": "0x22d",
          "removed": false
        }
      ],
      "logsBloom": "0x00000000000000000000000000000000000000000000000000000000000000000020000000000000000000000000000000000000000000000010000000000000000000000000000000000000000000000000000000000000000000000000000000000000000000000000000000000000000000000000000000000000000000002002000000000000000000000000000000000000000000000000040000000000000000000000000000000000000000000000000000000000000000000000000000000000000000000000000000000000000000000000000000000000000000000000000000040000000000000000000000000000000000000000000000000000",
      "type": "0x2",
      "transactionHash": "0x36baa35633d47e12823d0502825a9997cb4bd1733ee60470f7ac599644c789b4",
      "transactionIndex": "0x118",
      "blockHash": "0x3b14cd8def18ca623622d787e6f47aa4afb2db80a7dafaeb80d4d390303b4449",
      "blockNumber": "0x8528c0",
      "gasUsed": "0x7701",
      "effectiveGasPrice": "0x2c1af78",
      "from": "0x4510bae133e9917587255a6166be55c79f0ce474",
      "to": "0xc5a1a52ac838ef30db179c25f3d4a9e750f42abd",
      "contractAddress": null
    }
  ],
  "libraries": [],
  "pending": [],
  "returns": {},
  "timestamp": 1752068076,
  "chain": 11155111,
  "commit": "8bd7f19"
}