{
  "transactions": [
    {
      "hash": "0x6bfd8ff509d1aaf2a95f7d8e2334b4dc468585ab9b7802eec0d7380d1630d552",
      "transactionType": "CALL",
      "contractName": "MMadToken",
      "contractAddress": "0xc5a1a52ac838ef30db179c25f3d4a9e750f42abd",
      "function": "approve(address,uint256)",
      "arguments": [
        "0x000000000000000000000000000000000000ABcD",
        "1000000000000000000000"
      ],
      "transaction": {
        "from": "0x4510bae133e9917587255a6166be55c79f0ce474",
        "to": "0xc5a1a52ac838ef30db179c25f3d4a9e750f42abd",
        "gas": "0xf731",
        "value": "0x0",
        "input": "0x095ea7b3000000000000000000000000000000000000000000000000000000000000abcd00000000000000000000000000000000000000000000003635c9adc5dea00000",
        "nonce": "0x16",
        "chainId": "0xaa36a7"
      },
      "additionalContracts": [],
      "isFixedGasLimit": false
    },
    {
      "hash": "0x1d02c76b2b3a12645ad141156b8a74d549085f9bf892ecc8313b28868a2c7258",
      "transactionType": "CALL",
      "contractName": "MMadToken",
      "contractAddress": "0xc5a1a52ac838ef30db179c25f3d4a9e750f42abd",
      "function": "approve(address,uint256)",
      "arguments": [
        "0x000000000000000000000000000000000000eF12",
        "2000000000000000000000"
      ],
      "transaction": {
        "from": "0x4510bae133e9917587255a6166be55c79f0ce474",
        "to": "0xc5a1a52ac838ef30db179c25f3d4a9e750f42abd",
        "gas": "0xf731",
        "value": "0x0",
        "input": "0x095ea7b3000000000000000000000000000000000000000000000000000000000000ef1200000000000000000000000000000000000000000000006c6b935b8bbd400000",
        "nonce": "0x17",
        "chainId": "0xaa36a7"
      },
      "additionalContracts": [],
      "isFixedGasLimit": false
    },
    {
      "hash": "0xe18709453e1f90837b8b6a815416fdec3cca6f978a13857e2949d47671597ab0",
      "transactionType": "CALL",
      "contractName": "MMadToken",
      "contractAddress": "0xc5a1a52ac838ef30db179c25f3d4a9e750f42abd",
      "function": "approve(address,uint256)",
      "arguments": [
        "0x0000000000000000000000000000000000003456",
        "3000000000000000000000"
      ],
      "transaction": {
        "from": "0x4510bae133e9917587255a6166be55c79f0ce474",
        "to": "0xc5a1a52ac838ef30db179c25f3d4a9e750f42abd",
        "gas": "0xf731",
        "value": "0x0",
        "input": "0x095ea7b300000000000000000000000000000000000000000000000000000000000034560000000000000000000000000000000000000000000000a2a15d09519be00000",
        "nonce": "0x18",
        "chainId": "0xaa36a7"
      },
      "additionalContracts": [],
      "isFixedGasLimit": false
    }
  ],
  "receipts": [
    {
      "status": "0x1",
      "cumulativeGasUsed": "0x15355b9",
      "logs": [
        {
          "address": "0xc5a1a52ac838ef30db179c25f3d4a9e750f42abd",
          "topics": [
            "0x8c5be1e5ebec7d5bd14f71427d1e84f3dd0314c0f7b2291e5b200ac8c7c3b925",
            "0x0000000000000000000000004510bae133e9917587255a6166be55c79f0ce474",
            "0x000000000000000000000000000000000000000000000000000000000000abcd"
          ],
          "data": "0x00000000000000000000000000000000000000000000003635c9adc5dea00000",
          "blockHash": "0x9580318972f19d77ddbaf6daecd8ae94028fb95f7a262f2162ea8894368cb3e7",
          "blockNumber": "0x8528c4",
          "blockTimestamp": "0x686e701c",
          "transactionHash": "0x6bfd8ff509d1aaf2a95f7d8e2334b4dc468585ab9b7802eec0d7380d1630d552",
          "transactionIndex": "0xf6",
          "logIndex": "0x1fd",
          "removed": false
        }
      ],
      "logsBloom": "0x00000000000000000000000000000000000000000000000000000008000000000020000000000000000000000000000000000000000000000010000000200000000000000000000000000000000000000000000000000000000000000000000000000000000000000000000000000000000000000400000000000000000000000000000000000000000000000000000000000000000000000000000000000000020000000000000000000000001000000000000000000000000000000000000000000000000000000000000000004000000004000000000000000000000000000010000000040000000000000000000000000000000000000000000000080000",
      "type": "0x2",
      "transactionHash": "0x6bfd8ff509d1aaf2a95f7d8e2334b4dc468585ab9b7802eec0d7380d1630d552",
      "transactionIndex": "0xf6",
      "blockHash": "0x9580318972f19d77ddbaf6daecd8ae94028fb95f7a262f2162ea8894368cb3e7",
      "blockNumber": "0x8528c4",
      "gasUsed": "0xb2f7",
      "effectiveGasPrice": "0x31fa62e",
      "from": "0x4510bae133e9917587255a6166be55c79f0ce474",
      "to": "0xc5a1a52ac838ef30db179c25f3d4a9e750f42abd",
      "contractAddress": null
    },
    {
      "status": "0x1",
      "cumulativeGasUsed": "0x15408b0",
      "logs": [
        {
          "address": "0xc5a1a52ac838ef30db179c25f3d4a9e750f42abd",
          "topics": [
            "0x8c5be1e5ebec7d5bd14f71427d1e84f3dd0314c0f7b2291e5b200ac8c7c3b925",
            "0x0000000000000000000000004510bae133e9917587255a6166be55c79f0ce474",
            "0x000000000000000000000000000000000000000000000000000000000000ef12"
          ],
          "data": "0x00000000000000000000000000000000000000000000006c6b935b8bbd400000",
          "blockHash": "0x9580318972f19d77ddbaf6daecd8ae94028fb95f7a262f2162ea8894368cb3e7",
          "blockNumber": "0x8528c4",
          "blockTimestamp": "0x686e701c",
          "transactionHash": "0x1d02c76b2b3a12645ad141156b8a74d549085f9bf892ecc8313b28868a2c7258",
          "transactionIndex": "0xf7",
          "logIndex": "0x1fe",
          "removed": false
        }
      ],
      "logsBloom": "0x00000000000000000000000000000000000000000000000000000008004000000020000000000000000000000000000000000000000000000010000000200000000000000000000000000000000000000000000002000000000000000000000000000000000000000000000000000000000000000400000000000000000000000000000000000000000000000000000000000000000000000000000000000000020000000010000000000000000000000000000000000000000000000000000000000000000000000000000000000000000004000000000000000000000000000010000000040000000000000000000000000000000000000000000000000000",
      "type": "0x2",
      "transactionHash": "0x1d02c76b2b3a12645ad141156b8a74d549085f9bf892ecc8313b28868a2c7258",
      "transactionIndex": "0xf7",
      "blockHash": "0x9580318972f19d77ddbaf6daecd8ae94028fb95f7a262f2162ea8894368cb3e7",
      "blockNumber": "0x8528c4",
      "gasUsed": "0xb2f7",
      "effectiveGasPrice": "0x31fa62e",
      "from": "0x4510bae133e9917587255a6166be55c79f0ce474",
      "to": "0xc5a1a52ac838ef30db179c25f3d4a9e750f42abd",
      "contractAddress": null
    },
    {
      "status": "0x1",
      "cumulativeGasUsed": "0x154bba7",
      "logs": [
        {
          "address": "0xc5a1a52ac838ef30db179c25f3d4a9e750f42abd",
          "topics": [
            "0x8c5be1e5ebec7d5bd14f71427d1e84f3dd0314c0f7b2291e5b200ac8c7c3b925",
            "0x0000000000000000000000004510bae133e9917587255a6166be55c79f0ce474",
            "0x0000000000000000000000000000000000000000000000000000000000003456"
          ],
          "data": "0x0000000000000000000000000000000000000000000000a2a15d09519be00000",
          "blockHash": "0x9580318972f19d77ddbaf6daecd8ae94028fb95f7a262f2162ea8894368cb3e7",
          "blockNumber": "0x8528c4",
          "blockTimestamp": "0x686e701c",
          "transactionHash": "0xe18709453e1f90837b8b6a815416fdec3cca6f978a13857e2949d47671597ab0",
          "transactionIndex": "0xf8",
          "logIndex": "0x1ff",
          "removed": false
        }
      ],
      "logsBloom": "0x00000000000000000000000000000000000000000000000000000008000000000020800000000000000000000000000000000000000000000010000000200008000000000000000000000000000000000000000000000000000000000000000000000000000000000000000000000000000000000400000000000000000000000000000000000000000000000000000000000000000000000000000000000000020000000000000000000000000000000000000000000000000000000000000000000000000000000004000000000000000004000000000000000000000000000010000000040000000000000000000000000000000000000000000000000000",
      "type": "0x2",
      "transactionHash": "0xe18709453e1f90837b8b6a815416fdec3cca6f978a13857e2949d47671597ab0",
      "transactionIndex": "0xf8",
      "blockHash": "0x9580318972f19d77ddbaf6daecd8ae94028fb95f7a262f2162ea8894368cb3e7",
      "blockNumber": "0x8528c4",
      "gasUsed": "0xb2f7",
      "effectiveGasPrice": "0x31fa62e",
      "from": "0x4510bae133e9917587255a6166be55c79f0ce474",
      "to": "0xc5a1a52ac838ef30db179c25f3d4a9e750f42abd",
      "contractAddress": null
    }
  ],
  "libraries": [],
  "pending": [],
  "returns": {},
  "timestamp": 1752068125,
  "chain": 11155111,
  "commit": "8bd7f19"
}